S00D0000626C696E6B2E7372656307
S11300000C9434000C943E000C943E000C943E007E
S11300100C943E000C943E000C943E000C943E0064
S11300200C943E000C943E000C943E000C943E0054
S11300300C943E000C943E000C943E000C943E0044
S11300400C943E000C943E000C943E000C943E0034
S11300500C943E000C943E000C943E000C943E0024
S11300600C943E000C943E0011241FBECFEFD8E048
S1130070DEBFCDBF0E9440000C9425010C9400000B
S1130080259A2D9880E22FEF36E191E121503040FE
S11300909040E1F700C0000095B1982795B92FEF83
S11300A034E493E3215030409040E1F700C0000075
S11300B095B1982795B92FEF36E191E12150304061
S11300C09040E1F700C0000095B1982795B92FEF53
S11300D036E191E1215030409040E1F700C000004A
S11300E095B1982795B92FEF36E191E12150304031
S11300F09040E1F700C0000095B1982795B92FEF23
S113010036E191E1215030409040E1F700C0000019
S113011095B1982795B92FEF32E795E521503040F6
S11301209040E1F700C0000095B1982795B92FEFF2
S113013036E191E1215030409040E1F700C00000E9
S113014095B1982795B92FEF32E795E521503040C6
S11301509040E1F700C0000095B1982795B92FEFC2
S113016036E191E1215030409040E1F700C00000B9
S113017095B1982795B92FEF36E191E121503040A0
S11301809040E1F700C0000095B1982795B92FEF92
S113019036E191E1215030409040E1F700C0000089
S11301A095B1982795B92FEF36E191E12150304070
S11301B09040E1F700C0000095B1982795B92FEF62
S11301C034E493E3215030409040E1F700C0000054
S11301D095B1982795B92FEF36E191E12150304040
S11301E09040E1F700C0000095B1982795B92FEF32
S11301F034E493E3215030409040E1F700C0000024
S113020095B1982795B92FEF36E191E1215030400F
S11302109040E1F700C0000095B1982795B92FEF01
S113022034E493E3215030409040E1F700C00000F3
S113023095B1982795B92FEF32E795E521503040D5
S11102409040E1F700C000001ECFF894FFCFFD
S9030000FC
